:020000040000FA
:020000003E2898
:040002000034003492
:080008008B13A200030EA300FC
:100010000C1B1B200B191120230E8300A20E220E95
:100020000900851B1628051B1A280800051B19281E
:10003000080008000800241823281E08A60024141D
:100040001F15A22028281E08A50024101F11A22079
:100050009F140C1308000F3982078834BB34943482
:100060009134A334C134C0349B348034813482341D
:0C007000E034CC34B034C434C634080092
:04007C0078204F2079
:100080008A2092204528A7204528250C7F39203E2C
:100090009500260C7F39203E9B009F14452883162F
:1000A000BB30920083129D3095009713171397125F
:1000B0001712971517159710171020309B009D16D3
:1000C0001D129D151D159D141D1483160313640028
:1000D0005730810083120313FF309200080083120F
:1000E0000313900110149010901110169016080030
:1000F00083160317880108148814890183160313D3
:100100008501850987018801831203138501870111
:1001100088010800831603139F018312031387309D
:100120009F000800831603130C170B178B168312FE
:1001300003130B118B170800FA30A000A220A00BAC
:100140009E280800FA30A100A10BA428080007305F
:1001500095003F30970007309B003F309D0008001E
:02400E00D420BC
:02401000FF3F70
:00000001FF
